{
    "_format": "hh-sol-artifact-1",
    "contractName": "Escrow",
    "sourceName": "contracts/Escrow.sol",
    "abi": [
        {
            "inputs": [
                {
                    "internalType": "address",
                    "name": "_assetPriceFeed",
                    "type": "address"
                },
                {
                    "internalType": "uint256",
                    "name": "_wager",
                    "type": "uint256"
                },
                {
                    "internalType": "uint256",
                    "name": "_anchorPrice",
                    "type": "uint256"
                },
                {
                    "internalType": "uint256",
                    "name": "_paydayTimestamp",
                    "type": "uint256"
                }
            ],
            "stateMutability": "nonpayable",
            "type": "constructor"
        },
        {
            "inputs": [],
            "name": "Escrow__SendWinningsFailed",
            "type": "error"
        },
        {
            "inputs": [],
            "name": "anchorPrice",
            "outputs": [
                {
                    "internalType": "uint256",
                    "name": "",
                    "type": "uint256"
                }
            ],
            "stateMutability": "view",
            "type": "function"
        },
        {
            "inputs": [],
            "name": "bear",
            "outputs": [
                {
                    "internalType": "address payable",
                    "name": "",
                    "type": "address"
                }
            ],
            "stateMutability": "view",
            "type": "function"
        },
        {
            "inputs": [],
            "name": "bearDeposit",
            "outputs": [],
            "stateMutability": "payable",
            "type": "function"
        },
        {
            "inputs": [],
            "name": "bull",
            "outputs": [
                {
                    "internalType": "address payable",
                    "name": "",
                    "type": "address"
                }
            ],
            "stateMutability": "view",
            "type": "function"
        },
        {
            "inputs": [],
            "name": "bullDeposit",
            "outputs": [],
            "stateMutability": "payable",
            "type": "function"
        },
        {
            "inputs": [
                {
                    "internalType": "bytes",
                    "name": "",
                    "type": "bytes"
                }
            ],
            "name": "checkUpkeep",
            "outputs": [
                {
                    "internalType": "bool",
                    "name": "upkeepNeeded",
                    "type": "bool"
                },
                {
                    "internalType": "bytes",
                    "name": "",
                    "type": "bytes"
                }
            ],
            "stateMutability": "view",
            "type": "function"
        },
        {
            "inputs": [],
            "name": "getLatestPrice",
            "outputs": [
                {
                    "internalType": "int256",
                    "name": "",
                    "type": "int256"
                }
            ],
            "stateMutability": "view",
            "type": "function"
        },
        {
            "inputs": [],
            "name": "paydayTimestamp",
            "outputs": [
                {
                    "internalType": "uint256",
                    "name": "",
                    "type": "uint256"
                }
            ],
            "stateMutability": "view",
            "type": "function"
        },
        {
            "inputs": [
                {
                    "internalType": "bytes",
                    "name": "",
                    "type": "bytes"
                }
            ],
            "name": "performUpkeep",
            "outputs": [],
            "stateMutability": "nonpayable",
            "type": "function"
        },
        {
            "inputs": [],
            "name": "showContractBalance",
            "outputs": [
                {
                    "internalType": "uint256",
                    "name": "",
                    "type": "uint256"
                }
            ],
            "stateMutability": "view",
            "type": "function"
        },
        {
            "inputs": [],
            "name": "wager",
            "outputs": [
                {
                    "internalType": "uint256",
                    "name": "",
                    "type": "uint256"
                }
            ],
            "stateMutability": "view",
            "type": "function"
        }
    ],
    "bytecode": "0x60e06040523480156200001157600080fd5b5060405162000fc638038062000fc68339818101604052810190620000379190620000c7565b836000806101000a81548173ffffffffffffffffffffffffffffffffffffffff021916908373ffffffffffffffffffffffffffffffffffffffff1602179055508260a0818152505081608081815250508060c0818152505050505050620001b0565b600081519050620000aa816200017c565b92915050565b600081519050620000c18162000196565b92915050565b60008060008060808587031215620000e457620000e362000177565b5b6000620000f48782880162000099565b94505060206200010787828801620000b0565b93505060406200011a87828801620000b0565b92505060606200012d87828801620000b0565b91505092959194509250565b600062000146826200014d565b9050919050565b600073ffffffffffffffffffffffffffffffffffffffff82169050919050565b6000819050919050565b600080fd5b620001878162000139565b81146200019357600080fd5b50565b620001a1816200016d565b8114620001ad57600080fd5b50565b60805160a05160c051610dc362000203600039600081816103cb0152818161048a01526104b20152600081816102dc01528181610466015261062501526000818161038101526103f30152610dc36000f3fe60806040526004361061009c5760003560e01c8063667d5d2211610064578063667d5d2214610155578063669452fd146101805780636e04ff0d146101ab5780638e15f473146101e9578063901c947f14610214578063c9ccc3801461023f5761009c565b8063144df471146100a15780631c0825ee146100ab57806337b6c887146100d65780634585e33b1461010157806349cef7231461012a575b600080fd5b6100a9610249565b005b3480156100b757600080fd5b506100c061037f565b6040516100cd9190610b66565b60405180910390f35b3480156100e257600080fd5b506100eb6103a3565b6040516100f89190610aa0565b60405180910390f35b34801561010d57600080fd5b50610128600480360381019061012391906108c2565b6103c9565b005b34801561013657600080fd5b5061013f61043e565b60405161014c9190610aa0565b60405180910390f35b34801561016157600080fd5b5061016a610464565b6040516101779190610b66565b60405180910390f35b34801561018c57600080fd5b50610195610488565b6040516101a29190610b66565b60405180910390f35b3480156101b757600080fd5b506101d260048036038101906101cd91906108c2565b6104ac565b6040516101e0929190610abb565b60405180910390f35b3480156101f557600080fd5b506101fe6104dc565b60405161020b9190610aeb565b60405180910390f35b34801561022057600080fd5b5061022961058a565b6040516102369190610b66565b60405180910390f35b610247610592565b005b600073ffffffffffffffffffffffffffffffffffffffff16600260009054906101000a900473ffffffffffffffffffffffffffffffffffffffff1673ffffffffffffffffffffffffffffffffffffffff16146102da576040517f08c379a00000000000000000000000000000000000000000000000000000000081526004016102d190610b06565b60405180910390fd5b7f0000000000000000000000000000000000000000000000000000000000000000341461033c576040517f08c379a000000000000000000000000000000000000000000000000000000000815260040161033390610b46565b60405180910390fd5b33600260006101000a81548173ffffffffffffffffffffffffffffffffffffffff021916908373ffffffffffffffffffffffffffffffffffffffff160217905550565b7f000000000000000000000000000000000000000000000000000000000000000081565b600260009054906101000a900473ffffffffffffffffffffffffffffffffffffffff1681565b7f000000000000000000000000000000000000000000000000000000000000000042111561043a577f000000000000000000000000000000000000000000000000000000000000000061041a6104dc565b1261042e5761042960016106c8565b610439565b61043860006106c8565b5b5b5050565b600160009054906101000a900473ffffffffffffffffffffffffffffffffffffffff1681565b7f000000000000000000000000000000000000000000000000000000000000000081565b7f000000000000000000000000000000000000000000000000000000000000000081565b600060607f0000000000000000000000000000000000000000000000000000000000000000421191509250929050565b60008060008054906101000a900473ffffffffffffffffffffffffffffffffffffffff1673ffffffffffffffffffffffffffffffffffffffff1663feaf968c6040518163ffffffff1660e01b815260040160a06040518083038186803b15801561054557600080fd5b505afa158015610559573d6000803e3d6000fd5b505050506040513d601f19601f8201168201806040525081019061057d919061090f565b5050509150508091505090565b600047905090565b600073ffffffffffffffffffffffffffffffffffffffff16600160009054906101000a900473ffffffffffffffffffffffffffffffffffffffff1673ffffffffffffffffffffffffffffffffffffffff1614610623576040517f08c379a000000000000000000000000000000000000000000000000000000000815260040161061a90610b26565b60405180910390fd5b7f00000000000000000000000000000000000000000000000000000000000000003414610685576040517f08c379a000000000000000000000000000000000000000000000000000000000815260040161067c90610b46565b60405180910390fd5b33600160006101000a81548173ffffffffffffffffffffffffffffffffffffffff021916908373ffffffffffffffffffffffffffffffffffffffff160217905550565b6000811561076357600160009054906101000a900473ffffffffffffffffffffffffffffffffffffffff1673ffffffffffffffffffffffffffffffffffffffff164760405161071690610a8b565b60006040518083038185875af1925050503d8060008114610753576040519150601f19603f3d011682016040523d82523d6000602084013e610758565b606091505b5050809150506107f2565b600260009054906101000a900473ffffffffffffffffffffffffffffffffffffffff1673ffffffffffffffffffffffffffffffffffffffff16476040516107a990610a8b565b60006040518083038185875af1925050503d80600081146107e6576040519150601f19603f3d011682016040523d82523d6000602084013e6107eb565b606091505b5050809150505b80610829576040517fdecaa3b800000000000000000000000000000000000000000000000000000000815260040160405180910390fd5b5050565b60008083601f84011261084357610842610c59565b5b8235905067ffffffffffffffff8111156108605761085f610c54565b5b60208301915083600182028301111561087c5761087b610c5e565b5b9250929050565b60008151905061089281610d48565b92915050565b6000815190506108a781610d5f565b92915050565b6000815190506108bc81610d76565b92915050565b600080602083850312156108d9576108d8610c68565b5b600083013567ffffffffffffffff8111156108f7576108f6610c63565b5b6109038582860161082d565b92509250509250929050565b600080600080600060a0868803121561092b5761092a610c68565b5b6000610939888289016108ad565b955050602061094a88828901610883565b945050604061095b88828901610898565b935050606061096c88828901610898565b925050608061097d888289016108ad565b9150509295509295909350565b61099381610bb9565b82525050565b6109a281610bcb565b82525050565b60006109b382610b81565b6109bd8185610b8c565b93506109cd818560208601610c21565b6109d681610c6d565b840191505092915050565b6109ea81610bd7565b82525050565b60006109fd602283610ba8565b9150610a0882610c7e565b604082019050919050565b6000610a20602283610ba8565b9150610a2b82610ccd565b604082019050919050565b6000610a43600083610b9d565b9150610a4e82610d1c565b600082019050919050565b6000610a66601b83610ba8565b9150610a7182610d1f565b602082019050919050565b610a8581610c01565b82525050565b6000610a9682610a36565b9150819050919050565b6000602082019050610ab5600083018461098a565b92915050565b6000604082019050610ad06000830185610999565b8181036020830152610ae281846109a8565b90509392505050565b6000602082019050610b0060008301846109e1565b92915050565b60006020820190508181036000830152610b1f816109f0565b9050919050565b60006020820190508181036000830152610b3f81610a13565b9050919050565b60006020820190508181036000830152610b5f81610a59565b9050919050565b6000602082019050610b7b6000830184610a7c565b92915050565b600081519050919050565b600082825260208201905092915050565b600081905092915050565b600082825260208201905092915050565b6000610bc482610be1565b9050919050565b60008115159050919050565b6000819050919050565b600073ffffffffffffffffffffffffffffffffffffffff82169050919050565b6000819050919050565b600069ffffffffffffffffffff82169050919050565b60005b83811015610c3f578082015181840152602081019050610c24565b83811115610c4e576000848401525b50505050565b600080fd5b600080fd5b600080fd5b600080fd5b600080fd5b6000601f19601f8301169050919050565b7f5468652062656172206465706f7369742077617320616c7265616479206d616460008201527f652e000000000000000000000000000000000000000000000000000000000000602082015250565b7f5468652062756c6c206465706f7369742077617320616c7265616479206d616460008201527f652e000000000000000000000000000000000000000000000000000000000000602082015250565b50565b7f4d757374206465706f73697420776167657220616d6d6f756e742e0000000000600082015250565b610d5181610bd7565b8114610d5c57600080fd5b50565b610d6881610c01565b8114610d7357600080fd5b50565b610d7f81610c0b565b8114610d8a57600080fd5b5056fea26469706673582212208f3964dc10d42e63734853c8cef7e7f208b4b010aa44b1d7b563bde8fa71162a64736f6c63430008070033",
    "linkReferences": {},
    "deployedLinkReferences": {}
}